{
  "_format": "hh-sol-artifact-1",
  "contractName": "Token",
  "sourceName": "contracts/Token.sol",
  "abi": [
    {
      "inputs": [],
      "stateMutability": "nonpayable",
      "type": "constructor"
    },
    {
      "anonymous": false,
      "inputs": [
        {
          "indexed": true,
          "internalType": "address",
          "name": "owner",
          "type": "address"
        },
        {
          "indexed": true,
          "internalType": "address",
          "name": "spender",
          "type": "address"
        },
        {
          "indexed": false,
          "internalType": "uint256",
          "name": "value",
          "type": "uint256"
        }
      ],
      "name": "Approval",
      "type": "event"
    },
    {
      "anonymous": false,
      "inputs": [
        {
          "indexed": true,
          "internalType": "address",
          "name": "from",
          "type": "address"
        },
        {
          "indexed": true,
          "internalType": "address",
          "name": "to",
          "type": "address"
        },
        {
          "indexed": false,
          "internalType": "uint256",
          "name": "value",
          "type": "uint256"
        }
      ],
      "name": "Transfer",
      "type": "event"
    },
    {
      "inputs": [
        {
          "internalType": "address",
          "name": "approver",
          "type": "address"
        }
      ],
      "name": "addApprover",
      "outputs": [],
      "stateMutability": "nonpayable",
      "type": "function"
    },
    {
      "inputs": [
        {
          "internalType": "uint256",
          "name": "_number",
          "type": "uint256"
        }
      ],
      "name": "addKaizen",
      "outputs": [],
      "stateMutability": "nonpayable",
      "type": "function"
    },
    {
      "inputs": [
        {
          "internalType": "address",
          "name": "owner",
          "type": "address"
        },
        {
          "internalType": "address",
          "name": "delegate",
          "type": "address"
        }
      ],
      "name": "allowance",
      "outputs": [
        {
          "internalType": "uint256",
          "name": "",
          "type": "uint256"
        }
      ],
      "stateMutability": "view",
      "type": "function"
    },
    {
      "inputs": [
        {
          "internalType": "address",
          "name": "delegate",
          "type": "address"
        },
        {
          "internalType": "uint256",
          "name": "numTokens",
          "type": "uint256"
        }
      ],
      "name": "approve",
      "outputs": [
        {
          "internalType": "bool",
          "name": "",
          "type": "bool"
        }
      ],
      "stateMutability": "nonpayable",
      "type": "function"
    },
    {
      "inputs": [
        {
          "internalType": "address",
          "name": "",
          "type": "address"
        }
      ],
      "name": "approvers",
      "outputs": [
        {
          "internalType": "string",
          "name": "fname",
          "type": "string"
        },
        {
          "internalType": "string",
          "name": "lname",
          "type": "string"
        },
        {
          "internalType": "bool",
          "name": "_is",
          "type": "bool"
        }
      ],
      "stateMutability": "view",
      "type": "function"
    },
    {
      "inputs": [],
      "name": "approversCount",
      "outputs": [
        {
          "internalType": "uint256",
          "name": "",
          "type": "uint256"
        }
      ],
      "stateMutability": "view",
      "type": "function"
    },
    {
      "inputs": [
        {
          "internalType": "address",
          "name": "tokenOwner",
          "type": "address"
        }
      ],
      "name": "balanceOf",
      "outputs": [
        {
          "internalType": "uint256",
          "name": "",
          "type": "uint256"
        }
      ],
      "stateMutability": "view",
      "type": "function"
    },
    {
      "inputs": [],
      "name": "decimals",
      "outputs": [
        {
          "internalType": "uint8",
          "name": "",
          "type": "uint8"
        }
      ],
      "stateMutability": "view",
      "type": "function"
    },
    {
      "inputs": [
        {
          "internalType": "uint256",
          "name": "",
          "type": "uint256"
        }
      ],
      "name": "kaizens",
      "outputs": [
        {
          "internalType": "address",
          "name": "notifierAddress",
          "type": "address"
        },
        {
          "internalType": "uint256",
          "name": "vote",
          "type": "uint256"
        },
        {
          "internalType": "address",
          "name": "voter",
          "type": "address"
        },
        {
          "internalType": "bool",
          "name": "_is",
          "type": "bool"
        }
      ],
      "stateMutability": "view",
      "type": "function"
    },
    {
      "inputs": [],
      "name": "name",
      "outputs": [
        {
          "internalType": "string",
          "name": "",
          "type": "string"
        }
      ],
      "stateMutability": "view",
      "type": "function"
    },
    {
      "inputs": [],
      "name": "owner",
      "outputs": [
        {
          "internalType": "address",
          "name": "",
          "type": "address"
        }
      ],
      "stateMutability": "view",
      "type": "function"
    },
    {
      "inputs": [],
      "name": "readApproversCount",
      "outputs": [
        {
          "internalType": "uint256",
          "name": "",
          "type": "uint256"
        }
      ],
      "stateMutability": "view",
      "type": "function"
    },
    {
      "inputs": [
        {
          "internalType": "address",
          "name": "approver",
          "type": "address"
        }
      ],
      "name": "removeApprover",
      "outputs": [],
      "stateMutability": "nonpayable",
      "type": "function"
    },
    {
      "inputs": [],
      "name": "symbol",
      "outputs": [
        {
          "internalType": "string",
          "name": "",
          "type": "string"
        }
      ],
      "stateMutability": "view",
      "type": "function"
    },
    {
      "inputs": [],
      "name": "totalSupply",
      "outputs": [
        {
          "internalType": "uint256",
          "name": "",
          "type": "uint256"
        }
      ],
      "stateMutability": "view",
      "type": "function"
    },
    {
      "inputs": [
        {
          "internalType": "address",
          "name": "receiver",
          "type": "address"
        },
        {
          "internalType": "uint256",
          "name": "numTokens",
          "type": "uint256"
        }
      ],
      "name": "transfer",
      "outputs": [
        {
          "internalType": "bool",
          "name": "",
          "type": "bool"
        }
      ],
      "stateMutability": "nonpayable",
      "type": "function"
    },
    {
      "inputs": [
        {
          "internalType": "address",
          "name": "owner",
          "type": "address"
        },
        {
          "internalType": "address",
          "name": "buyer",
          "type": "address"
        },
        {
          "internalType": "uint256",
          "name": "numTokens",
          "type": "uint256"
        }
      ],
      "name": "transferFrom",
      "outputs": [
        {
          "internalType": "bool",
          "name": "",
          "type": "bool"
        }
      ],
      "stateMutability": "nonpayable",
      "type": "function"
    },
    {
      "inputs": [
        {
          "internalType": "uint256",
          "name": "_number",
          "type": "uint256"
        }
      ],
      "name": "voteKaizen",
      "outputs": [],
      "stateMutability": "nonpayable",
      "type": "function"
    }
  ],
  "bytecode": "0x6080604052620f424060025534801561001757600080fd5b506002546000803373ffffffffffffffffffffffffffffffffffffffff1673ffffffffffffffffffffffffffffffffffffffff1681526020019081526020016000208190555033600360006101000a81548173ffffffffffffffffffffffffffffffffffffffff021916908373ffffffffffffffffffffffffffffffffffffffff160217905550611cfc806100ad6000396000f3fe608060405234801561001057600080fd5b50600436106101165760003560e01c806355f73cc8116100a25780638da5cb5b116100715780638da5cb5b146102fa57806395d89b4114610318578063a9059cbb14610336578063b646c19414610366578063dd62ed3e1461038257610116565b806355f73cc8146102745780636cf4c88f1461029057806370a08231146102ac57806382fde093146102dc57610116565b806318160ddd116100e957806318160ddd146101b757806323b872dd146101d5578063311ae84014610205578063313ce56714610223578063499c034e1461024157610116565b806306fdde031461011b578063095ea7b3146101395780630a1443911461016957806314ebaeca1461019b575b600080fd5b6101236103b2565b60405161013091906114f2565b60405180910390f35b610153600480360381019061014e91906115ad565b6103eb565b6040516101609190611608565b60405180910390f35b610183600480360381019061017e9190611623565b6104dd565b60405161019293929190611650565b60405180910390f35b6101b560048036038101906101b09190611695565b610624565b005b6101bf610769565b6040516101cc91906116d1565b60405180910390f35b6101ef60048036038101906101ea91906116ec565b610773565b6040516101fc9190611608565b60405180910390f35b61020d610ad9565b60405161021a91906116d1565b60405180910390f35b61022b610ae3565b604051610238919061175b565b60405180910390f35b61025b60048036038101906102569190611695565b610ae8565b60405161026b9493929190611785565b60405180910390f35b61028e60048036038101906102899190611695565b610b65565b005b6102aa60048036038101906102a59190611623565b610ee1565b005b6102c660048036038101906102c19190611623565b611011565b6040516102d391906116d1565b60405180910390f35b6102e4611059565b6040516102f191906116d1565b60405180910390f35b61030261105f565b60405161030f91906117ca565b60405180910390f35b610320611085565b60405161032d91906114f2565b60405180910390f35b610350600480360381019061034b91906115ad565b6110be565b60405161035d9190611608565b60405180910390f35b610380600480360381019061037b9190611623565b611292565b005b61039c600480360381019061039791906117e5565b6113d2565b6040516103a991906116d1565b60405180910390f35b6040518060400160405280600981526020017f4b454153544f4b454e000000000000000000000000000000000000000000000081525081565b600081600160003373ffffffffffffffffffffffffffffffffffffffff1673ffffffffffffffffffffffffffffffffffffffff16815260200190815260200160002060008573ffffffffffffffffffffffffffffffffffffffff1673ffffffffffffffffffffffffffffffffffffffff168152602001908152602001600020819055508273ffffffffffffffffffffffffffffffffffffffff163373ffffffffffffffffffffffffffffffffffffffff167f8c5be1e5ebec7d5bd14f71427d1e84f3dd0314c0f7b2291e5b200ac8c7c3b925846040516104cb91906116d1565b60405180910390a36001905092915050565b600460205280600052604060002060009150905080600001805461050090611854565b80601f016020809104026020016040519081016040528092919081815260200182805461052c90611854565b80156105795780601f1061054e57610100808354040283529160200191610579565b820191906000526020600020905b81548152906001019060200180831161055c57829003601f168201915b50505050509080600101805461058e90611854565b80601f01602080910402602001604051908101604052809291908181526020018280546105ba90611854565b80156106075780601f106105dc57610100808354040283529160200191610607565b820191906000526020600020905b8154815290600101906020018083116105ea57829003601f168201915b5050505050908060020160009054906101000a900460ff16905083565b62a7d8c08111801561063957506301312d0081105b610678576040517f08c379a000000000000000000000000000000000000000000000000000000000815260040161066f906118f8565b60405180910390fd5b600015156005600083815260200190815260200160002060020160149054906101000a900460ff161515146106e2576040517f08c379a00000000000000000000000000000000000000000000000000000000081526004016106d99061198a565b60405180910390fd5b336005600083815260200190815260200160002060000160006101000a81548173ffffffffffffffffffffffffffffffffffffffff021916908373ffffffffffffffffffffffffffffffffffffffff16021790555060016005600083815260200190815260200160002060020160146101000a81548160ff02191690831515021790555050565b6000600254905090565b60008060008573ffffffffffffffffffffffffffffffffffffffff1673ffffffffffffffffffffffffffffffffffffffff168152602001908152602001600020548211156107c057600080fd5b600160008573ffffffffffffffffffffffffffffffffffffffff1673ffffffffffffffffffffffffffffffffffffffff16815260200190815260200160002060003373ffffffffffffffffffffffffffffffffffffffff1673ffffffffffffffffffffffffffffffffffffffff1681526020019081526020016000205482111561084957600080fd5b816000808673ffffffffffffffffffffffffffffffffffffffff1673ffffffffffffffffffffffffffffffffffffffff1681526020019081526020016000205461089391906119d9565b6000808673ffffffffffffffffffffffffffffffffffffffff1673ffffffffffffffffffffffffffffffffffffffff1681526020019081526020016000208190555081600160008673ffffffffffffffffffffffffffffffffffffffff1673ffffffffffffffffffffffffffffffffffffffff16815260200190815260200160002060003373ffffffffffffffffffffffffffffffffffffffff1673ffffffffffffffffffffffffffffffffffffffff1681526020019081526020016000205461095d91906119d9565b600160008673ffffffffffffffffffffffffffffffffffffffff1673ffffffffffffffffffffffffffffffffffffffff16815260200190815260200160002060003373ffffffffffffffffffffffffffffffffffffffff1673ffffffffffffffffffffffffffffffffffffffff16815260200190815260200160002081905550816000808573ffffffffffffffffffffffffffffffffffffffff1673ffffffffffffffffffffffffffffffffffffffff16815260200190815260200160002054610a279190611a0d565b6000808573ffffffffffffffffffffffffffffffffffffffff1673ffffffffffffffffffffffffffffffffffffffff168152602001908152602001600020819055508273ffffffffffffffffffffffffffffffffffffffff168473ffffffffffffffffffffffffffffffffffffffff167fddf252ad1be2c89b69c2b068fc378daa952ba7f163c4a11628f55a4df523b3ef84604051610ac691906116d1565b60405180910390a3600190509392505050565b6000600654905090565b600681565b60056020528060005260406000206000915090508060000160009054906101000a900473ffffffffffffffffffffffffffffffffffffffff16908060010154908060020160009054906101000a900473ffffffffffffffffffffffffffffffffffffffff16908060020160149054906101000a900460ff16905084565b62a7d8c081118015610b7a57506301312d0081105b610bb9576040517f08c379a0000000000000000000000000000000000000000000000000000000008152600401610bb0906118f8565b60405180910390fd5b60011515600460003373ffffffffffffffffffffffffffffffffffffffff1673ffffffffffffffffffffffffffffffffffffffff16815260200190815260200160002060020160009054906101000a900460ff16151514610c4f576040517f08c379a0000000000000000000000000000000000000000000000000000000008152600401610c4690611ad5565b60405180910390fd5b3373ffffffffffffffffffffffffffffffffffffffff166005600083815260200190815260200160002060020160009054906101000a900473ffffffffffffffffffffffffffffffffffffffff1673ffffffffffffffffffffffffffffffffffffffff161415610cf4576040517f08c379a0000000000000000000000000000000000000000000000000000000008152600401610ceb90611b41565b60405180910390fd5b600115156005600083815260200190815260200160002060020160149054906101000a900460ff16151514610d5e576040517f08c379a0000000000000000000000000000000000000000000000000000000008152600401610d5590611bd3565b60405180910390fd5b336005600083815260200190815260200160002060020160006101000a81548173ffffffffffffffffffffffffffffffffffffffff021916908373ffffffffffffffffffffffffffffffffffffffff160217905550600560008281526020019081526020016000206001016000815480929190610dda90611bf3565b91905055506002600654610dee9190611c6b565b6005600083815260200190815260200160002060010154118015610e735750600a600080600360009054906101000a900473ffffffffffffffffffffffffffffffffffffffff1673ffffffffffffffffffffffffffffffffffffffff1673ffffffffffffffffffffffffffffffffffffffff1681526020019081526020016000205410155b15610ede57610edc600360009054906101000a900473ffffffffffffffffffffffffffffffffffffffff166005600084815260200190815260200160002060000160009054906101000a900473ffffffffffffffffffffffffffffffffffffffff16600a610773565b505b50565b600360009054906101000a900473ffffffffffffffffffffffffffffffffffffffff1673ffffffffffffffffffffffffffffffffffffffff163373ffffffffffffffffffffffffffffffffffffffff1614610f3b57600080fd5b60011515600460008373ffffffffffffffffffffffffffffffffffffffff1673ffffffffffffffffffffffffffffffffffffffff16815260200190815260200160002060020160009054906101000a900460ff16151514610f9b57600080fd5b6000600460008373ffffffffffffffffffffffffffffffffffffffff1673ffffffffffffffffffffffffffffffffffffffff16815260200190815260200160002060020160006101000a81548160ff0219169083151502179055506006600081548092919061100990611c9c565b919050555050565b60008060008373ffffffffffffffffffffffffffffffffffffffff1673ffffffffffffffffffffffffffffffffffffffff168152602001908152602001600020549050919050565b60065481565b600360009054906101000a900473ffffffffffffffffffffffffffffffffffffffff1681565b6040518060400160405280600481526020017f4b4541530000000000000000000000000000000000000000000000000000000081525081565b60008060003373ffffffffffffffffffffffffffffffffffffffff1673ffffffffffffffffffffffffffffffffffffffff1681526020019081526020016000205482111561110b57600080fd5b816000803373ffffffffffffffffffffffffffffffffffffffff1673ffffffffffffffffffffffffffffffffffffffff1681526020019081526020016000205461115591906119d9565b6000803373ffffffffffffffffffffffffffffffffffffffff1673ffffffffffffffffffffffffffffffffffffffff16815260200190815260200160002081905550816000808573ffffffffffffffffffffffffffffffffffffffff1673ffffffffffffffffffffffffffffffffffffffff168152602001908152602001600020546111e19190611a0d565b6000808573ffffffffffffffffffffffffffffffffffffffff1673ffffffffffffffffffffffffffffffffffffffff168152602001908152602001600020819055508273ffffffffffffffffffffffffffffffffffffffff163373ffffffffffffffffffffffffffffffffffffffff167fddf252ad1be2c89b69c2b068fc378daa952ba7f163c4a11628f55a4df523b3ef8460405161128091906116d1565b60405180910390a36001905092915050565b600360009054906101000a900473ffffffffffffffffffffffffffffffffffffffff1673ffffffffffffffffffffffffffffffffffffffff163373ffffffffffffffffffffffffffffffffffffffff16146112ec57600080fd5b60001515600460008373ffffffffffffffffffffffffffffffffffffffff1673ffffffffffffffffffffffffffffffffffffffff16815260200190815260200160002060020160009054906101000a900460ff1615151461134c57600080fd5b6001600460008373ffffffffffffffffffffffffffffffffffffffff1673ffffffffffffffffffffffffffffffffffffffff16815260200190815260200160002060020160006101000a81548160ff0219169083151502179055506113b6816402540be4006103eb565b50600660008154809291906113ca90611bf3565b919050555050565b6000600160008473ffffffffffffffffffffffffffffffffffffffff1673ffffffffffffffffffffffffffffffffffffffff16815260200190815260200160002060008373ffffffffffffffffffffffffffffffffffffffff1673ffffffffffffffffffffffffffffffffffffffff16815260200190815260200160002054905092915050565b600081519050919050565b600082825260208201905092915050565b60005b83811015611493578082015181840152602081019050611478565b838111156114a2576000848401525b50505050565b6000601f19601f8301169050919050565b60006114c482611459565b6114ce8185611464565b93506114de818560208601611475565b6114e7816114a8565b840191505092915050565b6000602082019050818103600083015261150c81846114b9565b905092915050565b600080fd5b600073ffffffffffffffffffffffffffffffffffffffff82169050919050565b600061154482611519565b9050919050565b61155481611539565b811461155f57600080fd5b50565b6000813590506115718161154b565b92915050565b6000819050919050565b61158a81611577565b811461159557600080fd5b50565b6000813590506115a781611581565b92915050565b600080604083850312156115c4576115c3611514565b5b60006115d285828601611562565b92505060206115e385828601611598565b9150509250929050565b60008115159050919050565b611602816115ed565b82525050565b600060208201905061161d60008301846115f9565b92915050565b60006020828403121561163957611638611514565b5b600061164784828501611562565b91505092915050565b6000606082019050818103600083015261166a81866114b9565b9050818103602083015261167e81856114b9565b905061168d60408301846115f9565b949350505050565b6000602082840312156116ab576116aa611514565b5b60006116b984828501611598565b91505092915050565b6116cb81611577565b82525050565b60006020820190506116e660008301846116c2565b92915050565b60008060006060848603121561170557611704611514565b5b600061171386828701611562565b935050602061172486828701611562565b925050604061173586828701611598565b9150509250925092565b600060ff82169050919050565b6117558161173f565b82525050565b6000602082019050611770600083018461174c565b92915050565b61177f81611539565b82525050565b600060808201905061179a6000830187611776565b6117a760208301866116c2565b6117b46040830185611776565b6117c160608301846115f9565b95945050505050565b60006020820190506117df6000830184611776565b92915050565b600080604083850312156117fc576117fb611514565b5b600061180a85828601611562565b925050602061181b85828601611562565b9150509250929050565b7f4e487b7100000000000000000000000000000000000000000000000000000000600052602260045260246000fd5b6000600282049050600182168061186c57607f821691505b602082108114156118805761187f611825565b5b50919050565b7f476972646967696e697a2062696c646972696d206e756d61726173692079616e60008201527f6c69737469720000000000000000000000000000000000000000000000000000602082015250565b60006118e2602683611464565b91506118ed82611886565b604082019050919050565b60006020820190508181036000830152611911816118d5565b9050919050565b7f42752062696c646972696d206e756d61726173692064616861206f6e6365646560008201527f6e206b756c6c616e696c64690000000000000000000000000000000000000000602082015250565b6000611974602c83611464565b915061197f82611918565b604082019050919050565b600060208201905081810360008301526119a381611967565b9050919050565b7f4e487b7100000000000000000000000000000000000000000000000000000000600052601160045260246000fd5b60006119e482611577565b91506119ef83611577565b925082821015611a0257611a016119aa565b5b828203905092915050565b6000611a1882611577565b9150611a2383611577565b9250827fffffffffffffffffffffffffffffffffffffffffffffffffffffffffffffffff03821115611a5857611a576119aa565b5b828201905092915050565b7f4f6e61796369206f6c6d61646967696e697a206963696e206f7920766572656d60008201527f657a73696e697a00000000000000000000000000000000000000000000000000602082015250565b6000611abf602783611464565b9150611aca82611a63565b604082019050919050565b60006020820190508181036000830152611aee81611ab2565b9050919050565b7f4275206b61697a656e2765207a6174656e206f792076657264696e697a000000600082015250565b6000611b2b601d83611464565b9150611b3682611af5565b602082019050919050565b60006020820190508181036000830152611b5a81611b1e565b9050919050565b7f426f796c6520626972206b61697a656e2062696c646972696d6920796f6b747560008201527f7200000000000000000000000000000000000000000000000000000000000000602082015250565b6000611bbd602183611464565b9150611bc882611b61565b604082019050919050565b60006020820190508181036000830152611bec81611bb0565b9050919050565b6000611bfe82611577565b91507fffffffffffffffffffffffffffffffffffffffffffffffffffffffffffffffff821415611c3157611c306119aa565b5b600182019050919050565b7f4e487b7100000000000000000000000000000000000000000000000000000000600052601260045260246000fd5b6000611c7682611577565b9150611c8183611577565b925082611c9157611c90611c3c565b5b828204905092915050565b6000611ca782611577565b91506000821415611cbb57611cba6119aa565b5b60018203905091905056fea2646970667358221220836a588fa0df12f13d0a128b53567dd7d8654fd13003a9df105388790d5016a164736f6c63430008090033",
  "linkReferences": {},
  "deployedLinkReferences": {}
}